:020000040800F2
:10000000900600206D0100087501000877010008C6
:10001000790100087B0100087D0100080000000054
:100020000000000000000000000000007F01000848
:10003000810100080000000083010008850100081C
:100040008701000887010008870100088701000870
:100050008701000887010008870100088701000860
:100060008701000887010008870100088701000850
:100070008701000887010008870100088701000840
:100080008701000887010008870100088701000830
:100090008701000887010008870100088701000820
:1000A0008701000887010008870100088701000810
:1000B000711D0008870100088701000887010008FA
:1000C00087010008870100088701000887010008F0
:1000D00087010008D51D0008870100088701000876
:1000E00087010008870100088701000800F002F876
:1000F00000F02CF80AA090E8000C82448344AAF196
:100100000107DA4501D100F021F8AFF2090EBAE893
:100110000F0013F0010F18BFFB1A43F0010318473B
:100120008C1E00009C1E00000023002400250026D9
:10013000103A28BF78C1FBD8520728BF30C148BF4A
:100140000B6070471FB51FBD10B510BD00F031F832
:100150001146FFF7F7FF01F0EFFE00F04FF803B490
:10016000FFF7F2FF03BC00F057F800000948804792
:1001700009480047FEE7FEE7FEE7FEE7FEE7FEE789
:10018000FEE7FEE7FEE7FEE704480549054A064BA1
:1001900070470000D11C0008ED000008900000200E
:1001A00090060020900200209002002070477047C7
:1001B0007047754600F02CF8AE4605006946534678
:1001C00020F00700854618B020B5FFF7DDFFBDE839
:1001D00020404FF000064FF000074FF000084FF0AE
:1001E000000BAC46ACE8C009ACE8C009ACE8C009FB
:1001F000ACE8C00921F007018D46704710B50446F0
:10020000AFF300802046BDE81040FFF7A8BF000014
:10021000004870470000002001491820ABBEFEE7EF
:10022000260002007047000083B002900191002078
:1002300000900090FFE70098019988420BD8FFE7F3
:10024000029900200870029801300290FFE70098A0
:1002500001300090EFE703B07047000081B08DF8E7
:1002600003009DF80300012809D1FFE741F21801BE
:10027000C4F20201086840F00100086008E041F2A1
:100280001801C4F20201086820F001000860FFE7CD
:1002900001B0704780B584B00120039000F036F8BB
:1002A000039B0020019003210222029201F066F9D3
:1002B0000198029A039B042101F060F90198029AC7
:1002C000039B062101F05AF90198029A039B07212A
:1002D00001F054F904B080BD82B0019001984FF450
:1002E0007A7148430090FFE740F28800C2F20000B4
:1002F00000680099884201D8FFE7F5E740F28801DD
:10030000C2F200010020086002B0704781B08DF891
:1003100003009DF80300012809D1FFE741F218010D
:10032000C4F20201086840F00400086008E041F2ED
:100330001801C4F20201086820F004000860FFE719
:1003400001B0704781B08DF803009DF803000128CB
:1003500009D1FFE741F21801C4F20201086840F038
:100360000800086008E041F21801C4F202010868C0
:1003700020F008000860FFE701B0704780B5FFF784
:1003800089FF0020032100F0F3FF48B1FFE740F2AE
:100390006001C2F20001087840F001000870FFE738
:1003A0000020042100F0E4FF48B1FFE740F26001C3
:1003B000C2F20001087840F002000870FFE7002058
:1003C000062100F0D5FF48B1FFE740F26001C2F21C
:1003D0000001087840F004000870FFE700200721C2
:1003E00000F0C6FF48B1FFE740F26001C2F2000131
:1003F000087840F008000870FFE780BD80B582B043
:100400008DF8070000208DF8060000F0E1F9B0B982
:10041000FFE79DF80700002100F034F950B9FFE72D
:1004200000F006FA012804D1FFE701208DF806004C
:10043000FFE703E001208DF80600FFE703E001205D
:100440008DF80600FFE79DF8060002B080BD0000B1
:1004500081B08DF803009DF80300012809D1FFE762
:1004600041F21C01C4F20201086840F40010086067
:1004700008E041F21C01C4F20201086820F40010F7
:100480000860FFE701B0704780B584B08DF80F00B9
:10049000002000900290019000F07CF90120FFF70D
:1004A000D7FF0098029941F400410291029A45F267
:1004B0000041C4F200010A600290029808600198AD
:1004C00040F024000190019845F20441C4F200017B
:1004D00008609DF80F0088B9FFE745F21C41C4F29F
:1004E0000001086820F400400860B420086045F26C
:1004F0002041C4F200012520086010E045F21C41B3
:10050000C4F20001086840F4004008601E20086042
:1005100045F22041C4F200010B200860FFE7029879
:1005200040F001000290029845F20041C4F200013F
:10053000086004B080BD000083B002908DF8071001
:1005400000208DF8060000909DF8070048B9FFE7ED
:1005500045F20041C4F20001086840F48060086080
:1005600008E045F20041C4F20001086820F4806010
:100570000860FFE740F27800C2F2000000680090D7
:10058000FFE745F21440C4F200000068400600286E
:1005900010D4FFE740F27800C2F200000068009932
:1005A000401AB0F57A7F04D3FFE701208DF80600EA
:1005B00000E0E6E79DF8060040B9FFE745F210408D
:1005C000C4F20000006802990870FFE79DF8060079
:1005D00003B0704780B584B08DF80F0002918DF89C
:1005E00007208DF8063000208DF805008DF80400F6
:1005F0008DF8030000F0ECF8D8BBFFE79DF80F0082
:10060000012100F03FF878BBFFE700208DF80300E0
:10061000FFE79DF803009DF80710884216DAFFE710
:1006200002989DF80610FFF787FF20B9FFE70298B0
:100630000130029003E001208DF8050006E0FFE79D
:100640009DF8030001308DF80300E2E701A80121C5
:10065000FFF772FF00F0ECF8012804D1FFE701205A
:100660008DF80500FFE703E001208DF80500FFE7A6
:1006700003E001208DF80500FFE79DF8050004B0B8
:1006800080BD000083B002908DF8071000208DF827
:10069000060000909DF8070058B9FFE7029820F087
:1006A00001000290029845F21041C4F20001086076
:1006B0000AE0029840F001000290029845F21041D1
:1006C000C4F200010860FFE740F27800C2F20000C7
:1006D00000680090FFE745F21440C4F20000006893
:1006E0008007002810D4FFE740F27800C2F2000033
:1006F00000680099401AB0F57A7F04D3FFE7012023
:100700008DF8060000E0E6E745F21440C4F2000070
:10071000006845F21840C4F2000000689DF8060029
:1007200003B0704780B584B08DF80F0002918DF84A
:10073000072000208DF8060000F04AF810BBFFE704
:100740009DF80F000021FFF79DFFB0B9FFE7029869
:100750009DF8071000F09EF850B9FFE700F068F828
:10076000012804D1FFE701208DF80600FFE703E030
:1007700001208DF80600FFE703E001208DF8060058
:10078000FFE703E001208DF80600FFE79DF8060073
:1007900004B080BD80B582B001200090FFF7D2FD8B
:1007A0000098FFF75BFD009806210322019201F0FB
:1007B00097F80098019A072101F092F80421C4F2F9
:1007C0000101086820F00200086002B080BD00004E
:1007D00082B000208DF80700009045F20041C4F27D
:1007E0000001086840F48070086040F27800C2F2AE
:1007F000000000680090FFE745F21440C4F20000DA
:100800000068C00780B9FFE740F27800C2F200003C
:1008100000680099401AB0F57A7F04D3FFE7012001
:100820008DF8070000E0E7E79DF8070002B0704789
:1008300082B000208DF80700009045F20041C4F21C
:100840000001086840F40070086040F27800C2F2CD
:10085000000000680090FFE745F21440C4F2000079
:100860000068C006002810D5FFE740F27800C2F209
:10087000000000680099401AB0F57A7F04D3FFE7C2
:1008800001208DF8070000E0E6E79DF8070002B0C0
:100890007047000084B003908DF80B1000208DF895
:1008A0000A0001908DF8030040F27800C2F20000C7
:1008B00000680190FFE745F21440C4F200000068B0
:1008C0000006002810D4FFE740F27800C2F20000D2
:1008D00000680199401AB0F57A7F04D3FFE7012040
:1008E0008DF80A0000E0E6E700208DF80300FFE73E
:1008F0009DF803009DF80B10884237DAFFE740F2BD
:100900007800C2F2000000680190FFE745F2144051
:10091000C4F2000000680006002810D4FFE740F28F
:100920007800C2F2000000680199401AB0F57A7FA1
:1009300004D3FFE701208DF80A0000E0E6E79DF808
:100940000A0058B9FFE70398007845F21041C4F255
:100950000001086003980130039000E006E0FFE723
:100960009DF8030001308DF80300C1E79DF80A00EF
:1009700008BBFFE740F27800C2F200000068019077
:10098000FFE745F21440C4F2000000684007002869
:1009900010D4FFE740F27800C2F20000006801992D
:1009A000401AB0F57A7F04D3FFE701208DF80A00E2
:1009B00000E0E6E7FFE79DF80A0004B0704700009A
:1009C00081B041F20401C4F20201086820F0030082
:1009D000086041F21401C4F20201086820F480505A
:1009E000086041F20001C4F20201086820F0807042
:1009F0000860086840F480300860FFE741F20000BA
:100A0000C4F2020000688003002801D4FFE7F5E784
:100A100041F22C01C4F20201086820F48030086021
:100A2000086820F00F00086041F20401C4F20201DE
:100A30000091086840F480300860086820F4701065
:100A40000860086840F4E0100860086820F48060DE
:100A50000860086840F480500860086820F400507E
:100A60000860086820F0F0000860086840F00100A5
:100A7000086041F20002C4F20202106820F0010096
:100A80001060106840F080701060086820F070609E
:100A90000860086820F001000860086840F0020063
:100AA0000860FFE741F20400C4F20200006800079A
:100AB000002801D4FFE7F5E701B0704780B584B0A6
:100AC0000020009003900120029001F035F9009879
:100AD00002992822C4F2000210602C23C4F2000301
:100AE00048221A602422C4F2000210600C22C4F2D0
:100AF0000002106840F0010010601022C4F20002F1
:100B0000106820F0010010601C20019000F0D2F964
:100B1000019800F09BF9019800F0B2F9029803994E
:100B200021F010010391039941F001010391039910
:100B30004FF0804211601421C4F20001086004B03B
:100B400080BD000083B0029001910092019800786E
:100B500000EB80010098007800EB410002990870DA
:100B600003B0704780B584B000F0BAFA40F2750067
:100B7000C2F200000078013801460391042800F217
:100B8000F3800399DFE801F003367FA1D50040F23E
:100B90006D00C2F20000407840F26001C2F2000134
:100BA0000978884217D1FFE740F26D00C2F20000D9
:100BB000C078012807D1FFE740F27501C2F20001B9
:100BC0000220087006E040F27501C2F20001032025
:100BD0000870FFE70DE040F27501C2F2000100204D
:100BE000087040F27C00C2F200000A21FFF71CFBF3
:100BF000FFE7BAE040F26D00C2F20000807800F03A
:100C0000D1F8012807D1FFE740F26B01C2F20001E1
:100C100001200870FFE740F26D00C2F2000080780A
:100C200000F0C0F8012807D1FFE740F26B01C2F2E3
:100C3000000101200870FFE740F26D00C2F20000E1
:100C4000807800F0AFF8012807D1FFE740F26B0190
:100C5000C2F2000101200870FFE740F26B00C2F20F
:100C60000000007838B9FFE740F27501C2F20001D8
:100C70000320087006E040F27501C2F20001042072
:100C80000870FFE771E040F26D00C2F20000817869
:100C9000043000F06DF801280DD1FFE740F26B0140
:100CA000C2F200010220087040F27501C2F2000198
:100CB0000420087008E000F003FB40F27501C2F266
:100CC000000105200870FFE74FE040F26B00C2F220
:100CD0000000007800F0AEFA40F26C00C2F20000B2
:100CE0000078022808DCFFE740F26C01C2F2000144
:100CF00008780130087001E000F0F8F840F26B016C
:100D0000C2F200010020087040F27501C2F2000139
:100D1000087040F26100C2F200000A210291FFF760
:100D200083FA029940F27C00C2F20000FFF77CFADD
:100D30001BE040F26B01C2F200010020087040F29B
:100D40007501C2F20001087040F26100C2F20000B9
:100D50000A210191FFF768FA019940F27C00C2F282
:100D60000000FFF761FA00E0FFE704B080BD00007B
:100D700080B582B001908DF8031000208DF802003C
:100D800001989DF803204E2100F0BEF8012804D1FF
:100D9000FFE701208DF80200FFE79DF8020002B096
:100DA00080BD000080B582B08DF8070000208DF86E
:100DB00006009DF807104020012200F01DF9A0B99F
:100DC000FFE76420FFF788FA9DF807104020002213
:100DD00000F012F920B9FFE76420FFF77DFA03E085
:100DE00001208DF80600FFE703E001208DF80600E2
:100DF000FFE79DF8060002B080BD000080B582B01C
:100E000040F26D01C2F200010020087048700871C4
:100E10008870C87040F26001C2F20001087040F2B0
:100E20007501C2F20001087040F26100C2F20000D8
:100E30000A210191FFF7F8F9019940F27C00C2F212
:100E40000000FFF7F1F902B080BD000081B08DF81D
:100E500003009DF9031001EBD16020F01F028A1AF4
:100E6000012101FA02F342114EF28021CEF200017B
:100E700051F82200184341F8220001B070470000E9
:100E800081B08DF803009DF9031001EBD16020F0D3
:100E90001F028A1A012101FA02F342114EF20011D7
:100EA000CEF2000151F82200184341F8220001B0AF
:100EB0007047000081B08DF803008DF802109DF896
:100EC00002009DF9032002EB927121F00301521AF6
:100ED000D200043200FA02F34EF20042CEF20002D7
:100EE00088581843885001B0704700004EF60C51E6
:100EF000CEF20001086800F4E0600422C0F2FA5269
:100F000010430860FFE7FEE780B584B003908DF8DA
:100F10000B108DF80A2000238DF80930ADF806304B
:100F20009DF80B000DF106010222FFF753FB70BB89
:100F3000FFE79DF80A00012819DBFFE79DF80A008A
:100F4000082814DCFFE79DF80A0030B1FFE79DF8A0
:100F50000A0001388DF80A00FFE79DF806009DF8A9
:100F60000A10C84000F00100039908700EE09DF8D7
:100F70000A0009388DF80A009DF807009DF80A104C
:100F8000C84000F0010003990870FFE703E001206A
:100F90008DF80900FFE79DF8090004B080BD00004E
:100FA00080B582B08DF807008DF8061000208DF80E
:100FB0000500ADF802009DF80600012806D1FFE704
:100FC000FF208DF802008DF80300FFE79DF8070071
:100FD0000DF102010222FFF7A5FB20B9FFE7002077
:100FE0008DF8050003E001208DF80500FFE79DF86E
:100FF000050002B080BD000080B582B08DF807000A
:101000008DF806108DF8052000208DF80400ADF84D
:1010100002009DF8060001282BDBFFE79DF8060083
:10102000082826DCFFE79DF8060030B1FFE79DF8B1
:10103000060001388DF80600FFE79DF8050001283D
:101040000BD1FFE79DF80610012000FA01F19DF891
:10105000020008438DF802000AE09DF80610012006
:1010600000FA01F19DF8020088438DF80200FFE7C5
:1010700020E09DF8060009388DF806009DF805006F
:1010800001280BD1FFE79DF80610012000FA01F1BD
:101090009DF8030008438DF803000AE09DF8061050
:1010A000012000FA01F19DF8030088438DF8030048
:1010B000FFE7FFE79DF807000DF102010222FFF7AD
:1010C00031FB20B9FFE700208DF8040003E0012088
:1010D0008DF80400FFE79DF8040002B080BD000019
:1010E00080B584B040F27C00C2F2000000785B283A
:1010F00040F09E80FFE740F27C00C2F20000407AA0
:101100005D2840F09580FFE700208DF80F0001205A
:101110008DF80E008DF80E00FFE79DF80E000828F0
:1011200014DCFFE79DF80E2040F27C00C2F20000C4
:10113000805C303840F26101C2F200018854FFE760
:101140009DF80E0001308DF80E00E6E701208DF8C5
:101150000E00FFE79DF80E00082815DCFFE79DF85C
:101160000E1040F26100C2F20000405C092801DC70
:10117000FFE703E001208DF80F0005E09DF80E0069
:1011800001308DF80E00E5E79DF80F00012816D11B
:10119000FFE740F27501C2F200010020087040F242
:1011A0006100C2F200000A210291FFF73DF80299A6
:1011B00040F27C00C2F20000FFF736F830E040F267
:1011C0006100C2F200000190411C821C40F26D00DF
:1011D000C2F200000090FFF7B5FC0098019A0130C0
:1011E000D11C0432FFF7AEFC0098019A0230511D69
:1011F0000632FFF7A7FC0098019A0330D11D083290
:10120000FFF7A0FC40F27501C2F200010120087056
:1012100040F27C00C2F200000A21FFF705F8FFE768
:1012200040F27C00C2F200000A21FEF7FDFFFFE75A
:1012300004B080BD80B586B08DF8170040F2610122
:10124000C2F2000104915B2008705D2048724520C5
:10125000487052208870C8704F220A714871492026
:1012600088714320C8719DF81700012807D1FFE756
:1012700040F26101C2F200015720087206E040F21C
:101280006101C2F2000152200872FFE740F26100E2
:10129000C2F2000002900A21039100F0FBFD6420DD
:1012A0000190FFF719F80298039900F0F3FD0198F7
:1012B000FFF712F80298039900F0ECFD06B080BD2C
:1012C00080B584B001208DF80F0040F26102C2F2B7
:1012D00000025B2111705D2151728DF80F00FFE754
:1012E0009DF80F00062810DCFFE79DF80F2040F264
:1012F0006101C2F20001885C30308854FFE79DF83C
:101300000F0001308DF80F00EAE740F26D00C2F2E5
:1013100000000079012809D1FFE740F26101C2F223
:1013200000013020C8713120087207E040F26101ED
:10133000C2F200013020C8710872FFE740F261007C
:10134000C2F2000001900A21029100F0A3FD642086
:101350000090FEF7C1FF0198029900F09BFD0098F4
:10136000FEF7BAFF0198029900F094FD04B080BD29
:1013700082B08DF807008DF806109DF8070060B95F
:10138000FFE740F60800C4F2010000689DF806205F
:10139000012191400840009065E09DF80700012878
:1013A0000CD1FFE740F60840C4F2010000689DF848
:1013B0000620012191400840009053E09DF807006D
:1013C00002280CD1FFE741F20800C4F201000068D6
:1013D0009DF80620012191400840009041E09DF8D1
:1013E000070003280CD1FFE741F20840C4F20100D6
:1013F00000689DF8062001219140084000902FE0F0
:101400009DF8070004280CD1FFE741F60800C4F25C
:10141000010000689DF806200121914008400090DD
:101420001DE09DF8070005280CD1FFE741F60840B4
:10143000C4F2010000689DF8062001219140084097
:1014400000900BE042F20800C4F2010000689DF831
:1014500006200121914008400090FFE7FFE7FFE7E9
:10146000FFE7FFE7FFE7009802B0704782B0019006
:101470008DF803108DF802208DF801309DF80310CF
:10148000032000FA01F3019A1168994311609DF855
:10149000021000FA01F201990868904308609DF873
:1014A000010001280AD1FFE79DF80210012000FA8F
:1014B00001F2019908681043086010E09DF80100EE
:1014C00002280AD1FFE79DF80210022000FA01F27B
:1014D000019908681043086000E0FFE7FFE702B0E9
:1014E0007047000082B001908DF803108DF8022043
:1014F0008DF801309DF80310032000FA01F3019AE2
:101500001168194311609DF8021000FA01F2019967
:101510000868904308609DF8010001280AD1FFE7A0
:101520009DF80210012000FA01F2019908681043A9
:10153000086020E09DF8010002280AD1FFE79DF82D
:101540000210022000FA01F20199086810430860B5
:1015500010E09DF8010003280AD1FFE79DF8021072
:10156000032000FA01F2019908681043086000E0C6
:10157000FFE7FFE7FFE702B07047000080B582B0E9
:101580008DF807008DF806108DF805208DF80430D1
:101590009DF80600072800F3CF80FFE79DF80600BE
:1015A00080008DF803009DF8030002308DF80200E2
:1015B0009DF80700B8B9FFE79DF803109DF80220D9
:1015C0009DF8053040F60000C4F20100FFF74EFF21
:1015D0009DF806109DF8042040F60C00C4F20100AE
:1015E00000F0A2FAA7E09DF80700012817D1FFE755
:1015F0009DF803109DF802209DF8053040F600404C
:10160000C4F20100FFF732FF9DF806109DF8042098
:1016100040F60C40C4F2010000F086FA8AE09DF822
:101620000700022817D1FFE79DF803109DF802205C
:101630009DF8053041F20000C4F20100FFF716FFEB
:101640009DF806109DF8042041F20C00C4F2010040
:1016500000F06AFA6DE09DF80700032817D1FFE754
:101660009DF803109DF802209DF8053041F20040DE
:10167000C4F20100FFF7FAFE9DF806109DF8042061
:1016800041F20C40C4F2010000F04EFA50E09DF827
:101690000700042817D1FFE79DF803109DF80220EA
:1016A0009DF8053041F60000C4F20100FFF7DEFEB0
:1016B0009DF806109DF8042041F60C00C4F20100CC
:1016C00000F032FA33E09DF80700052817D1FFE754
:1016D0009DF803109DF802209DF8053041F600406A
:1016E000C4F20100FFF7C2FE9DF806109DF8042029
:1016F00041F60C40C4F2010000F016FA16E09DF825
:1017000003109DF802209DF8053042F20000C4F25B
:101710000100FFF7ABFE9DF806109DF8042042F291
:101720000C00C4F2010000F0FFF9FFE7FFE7FFE75C
:10173000FFE7FFE7FFE7D0E09DF806106FF01F001E
:1017400000EB81008DF801009DF8010002308DF85A
:1017500000009DF80700B8B9FFE79DF801109DF85B
:1017600000209DF8053040F60400C4F20100FFF7A8
:101770007DFE9DF806109DF8042040F60C00C4F292
:10178000010000F0D1F9A7E09DF80700012817D16A
:10179000FFE79DF801109DF800209DF8053040F608
:1017A0000440C4F20100FFF761FE9DF806109DF8A9
:1017B000042040F60C40C4F2010000F0B5F98AE0C4
:1017C0009DF80700022817D1FFE79DF801109DF84A
:1017D00000209DF8053041F20400C4F20100FFF73B
:1017E00045FE9DF806109DF8042041F20C00C4F25D
:1017F000010000F099F96DE09DF80700032817D16A
:10180000FFE79DF801109DF800209DF8053041F29A
:101810000440C4F20100FFF729FE9DF806109DF870
:10182000042041F20C40C4F2010000F07DF950E0C8
:101830009DF80700042817D1FFE79DF801109DF8D7
:1018400000209DF8053041F60400C4F20100FFF7C6
:101850000DFE9DF806109DF8042041F60C00C4F220
:10186000010000F061F933E09DF80700052817D169
:10187000FFE79DF801109DF800209DF8053041F626
:101880000440C4F20100FFF7F1FD9DF806109DF839
:10189000042041F60C40C4F2010000F045F916E0C6
:1018A0009DF801109DF800209DF8053042F20400DB
:1018B000C4F20100FFF7DAFD9DF806109DF8042040
:1018C00042F20C00C4F2010000F02EF9FFE7FFE73E
:1018D000FFE7FFE7FFE7FFE7FFE702B080BD00009B
:1018E00080B582B08DF807008DF806108DF80520C0
:1018F0009DF80600072800F38980FFE79DF80600A1
:1019000080008DF804009DF8040002308DF803007B
:101910009DF8070068B9FFE79DF804109DF80320C3
:101920009DF8053040F60000C4F20100FFF7DAFD33
:101930006BE09DF8070001280DD1FFE79DF804102A
:101940009DF803209DF8053040F60040C4F20100E8
:10195000FFF7C8FD58E09DF8070002280DD1FFE70A
:101960009DF804109DF803209DF8053041F2000019
:10197000C4F20100FFF7B6FD45E09DF8070003281B
:101980000DD1FFE79DF804109DF803209DF8053068
:1019900041F20040C4F20100FFF7A4FD32E09DF8DF
:1019A000070004280DD1FFE79DF804109DF80320DF
:1019B0009DF8053041F60000C4F20100FFF792FDEA
:1019C0001FE09DF8070005280DD1FFE79DF80410E2
:1019D0009DF803209DF8053041F60040C4F2010057
:1019E000FFF780FD0CE09DF804109DF803209DF8A2
:1019F000053042F20000C4F20100FFF773FDFFE77B
:101A0000FFE7FFE7FFE7FFE7FFE78AE09DF8061043
:101A10006FF01F0000EB81008DF802009DF80200BE
:101A200002308DF801009DF8070068B9FFE79DF8C6
:101A300002109DF801209DF8053040F60400C4F224
:101A40000100FFF74FFD6BE09DF8070001280DD165
:101A5000FFE79DF802109DF801209DF8053040F643
:101A60000440C4F20100FFF73DFD58E09DF8070077
:101A700002280DD1FFE79DF802109DF801209DF886
:101A8000053041F20400C4F20100FFF72BFD45E0F0
:101A90009DF8070003280DD1FFE79DF802109DF87F
:101AA00001209DF8053041F20440C4F20100FFF727
:101AB00019FD32E09DF8070004280DD1FFE79DF8DD
:101AC00002109DF801209DF8053041F60400C4F293
:101AD0000100FFF707FD1FE09DF8070005280DD165
:101AE000FFE79DF802109DF801209DF8053041F6B2
:101AF0000440C4F20100FFF7F5FC0CE09DF8021071
:101B00009DF801209DF8053042F20400C4F2010066
:101B1000FFF7E8FCFFE7FFE7FFE7FFE7FFE7FFE787
:101B2000FFE702B080BD000082B001908DF8031085
:101B30008DF802209DF8020001280AD1FFE79DF8E8
:101B40000310012000FA01F20199086810430860AF
:101B500009E09DF80310012000FA01F201990868DC
:101B600090430860FFE702B07047000080B500F0C6
:101B700001F880BD84B000200390029041F2000182
:101B8000C4F20201086840F480300860FFE741F2C7
:101B90000000C4F20200006800F4003002900398D4
:101BA00001300390FFE702990020019039B9FFE767
:101BB0000398B0F5A06018BF01200190FFE70198DD
:101BC000C0070028E3D1FFE741F20000C4F20200A1
:101BD00000688003002803D5FFE70120029002E09F
:101BE00000200290FFE70298012851D1FFE742F25E
:101BF0000001C4F20201086840F0100008600868A3
:101C000020F007000860086840F00200086041F218
:101C10000401C4F2020100910868086008680860C5
:101C2000086840F480600860086820F47C10086050
:101C3000086840F4E810086041F20001C4F20201B3
:101C4000086840F080700860FFE741F20000C4F2CD
:101C5000020000688001002801D4FFE7F5E741F2A7
:101C60000401C4F20201086820F00300086008685B
:101C700040F002000860FFE741F20400C4F20200F5
:101C8000006800F00C00082801D0FFE7F4E700E04E
:101C9000FFE704B07047000080B584B001200390D6
:101CA000FEF734FB00200190092102220292FFF787
:101CB00017FE0198029A039B0A21FFF75FFC04219B
:101CC000C4F20101086820F00400086004B080BD7F
:101CD00080B541F20002C4F20202106840F0010037
:101CE000106041F20401C4F2020108680023CFF63B
:101CF000FF031840086010684FF6FF73CFF6F663D5
:101D000018401060106820F480201060086820F4EB
:101D1000FE00086041F20801C4F202014FF41F0006
:101D20000860FFF723FF4EF60851CEF200014FF096
:101D30000060086080BD000081B08DF803009DF850
:101D40000300012809D1FFE741F21C01C4F202019E
:101D5000086840F00100086008E041F21C01C4F28C
:101D60000201086820F001000860FFE701B0704739
:101D70001021C4F20001086820F00100086040F260
:101D80007801C2F2000108680130086040F2880161
:101D9000C2F20001086801300860704781B08DF818
:101DA00003009DF80300012809D1FFE741F2180163
:101DB000C4F20201086840F48040086008E041F283
:101DC0001801C4F20201086820F480400860FFE7AF
:101DD00001B0704780B543F60000C4F2010000680E
:101DE0008006002823D5FFE743F60400C4F2010073
:101DF000016840F28600C2F20000037840F27C02E3
:101E0000C2F20002D1540078092807DBFFE740F254
:101E10008601C2F200010020087007E040F286014E
:101E2000C2F20001087801300870FFE7FFE72520C3
:101E3000FFF70CF880BD000080B582B00190002053
:101E4000009040F27800C2F2000000680090FFE7C6
:101E500043F60000C4F201000068000600280FD419
:101E6000FFE740F27800C2F2000000680099401AD3
:101E700041F28831884202D3FFE7FFF737F8E7E7FE
:101E80000198007843F60401C4F20101086002B031
:101E900080BD000080B584B00390029100200190C5
:101EA0000190FFE70198029988420BD2FFE703985F
:101EB000FFF7C2FF039801300390FFE7019801305C
:101EC0000190EFE704B080BD80B582B0FFF7E4FE7B
:101ED0000120FFF763FF43F60C01C4F2010108681B
:101EE00040F008000860086840F0040008600868D6
:101EF00020F480500860086840F02000086043F635
:101F00000802C4F20102106840F41C7010601068EE
:101F100040F001001060086840F40050086025207F
:101F200001900021FEF7C6FF0198FEF78FFF019890
:101F3000FEF7A6FF02B080BD80B582B00020019000
:101F400000F000F8FEF73CFDFFF7BEFFFEF7B6FD20
:101F5000FEF754FFFEF712FA0120FEF795FA402033
:101F60000021FFF71DF8FFE74020FEF747FA0128A0
:101F700008D1FFE70120FFF75DF941F28830FEF755
:101F8000ABF9F1E7FFE74E20FEF738FA012808D158
:101F9000FFE70220FFF74EF941F28830FEF79CF987
:101FA000F1E7FFE7FEF7DEFDFCE70000BC1F0008DD
:0C1FB0000000002090060000280100083E
:04000005080000ED02
:00000001FF
